S00F000052585F54656D702E7372656376
S11300000C9434000C947B000C9451000C9451001B
S11300100C9451000C9451000C9451000C94510018
S11300200C9451000C9451000C9451000C94510008
S11300300C9451000C9451000C9451000C945100F8
S11300400C9451000C9451000C9451000C945100E8
S11300500C9451000C9451000C9451000C945100D8
S11300600C9451000C94510011241FBECFEFD8E022
S1130070DEBFCDBF11E0A0E0B1E0E6ECF8E002C0E5
S113008005900D92AC30B107D9F721E0ACE0B1E0B6
S113009001C01D92A131B207E1F70E94BE000C9489
S11300A061040C940000CF93DF930E942501EC01BE
S11300B085E290E09983888322E02A839C838B8362
S11300C021E02D839F838E8325E028879A87898763
S11300D023E02B879D878C8784E08E87E9E6F0E018
S11300E0808182608083E89ACE010E941502CE014D
S11300F0DF91CF9108951F920F920FB60F921124A2
S11301008F9381E080930C018F910F900FBE0F901D
S11301101F901895DC01E0ECF0E0908195FFFDCF95
S11301208C918093C6000895EF92FF920F931F93D2
S1130130CF93DF931F92CDB7DEB72AE029836623DE
S113014089F08C016150E62EF12C2FEFE21AF20AAD
S1130150E80EF91EC8010E948A000F5F1F4F0E159A
S11301601F05C1F7CE0101960E948A000F90DF910E
S1130170CF911F910F91FF90EF900895CF93DF934C
S1130180CDB7DEB7AD970FB6F894DEBF0FBECDBFC7
S113019085E0E6E0F1E0DE01119601900D928A958A
S11301A0E1F778940E9453008C01AE014F5F5F4FDA
S11301B060E070E00E947C0121E030E0AE014A5F23
S11301C05F4F60E0C8010E946E011092C50080E19B
S11301D08093C400E0ECF0E0808182608083E1ECF5
S11301E0F0E0808188608083E2ECF0E080818660CA
S11301F0808380910C018823E1F310920C010BC0E1
S1130200BE01655F7F4FC8010E9410036DA5CE013A
S11302100D960E949400C8010E94E3018111F0CF61
S1130220AE014F5F5F4F60E070E0C8010E947C0147
S1130230E0CFFC01A62FB72F9C012B5F3F4F91917C
S11302409D93E217F307D9F7089580E190E00E94A7
S1130250400320E1FC0111922A95E9F70895CF9318
S1130260DF93EC01DA01E881F981508181E090E0CB
S11302700A8002C0880F991F0A94E2F780958523AB
S113028080836EBD0DB407FEFDCF8EB58F8721151B
S1130290310579F0FD012A0F3B1FDF0190819EBDDE
S11302A00DB407FEFDCF9EB59C933196E217F3077C
S11302B0A1F7E881F981208181E090E00A8002C001
S11302C0880F991F0A94E2F7822B80838F85DF9130
S11302D0CF91089560620E942F0108950E942F011A
S11302E0089520E030E040E050E06FEF0E942F01DD
S11302F008950E9471010895DF92EF92FF920F9387
S11303001F93CF93DF9300D000D000D0CDB7DEB7DA
S11303107C01D62ECA01BE016F5F7F4F0E94190176
S11303206AE06D0D25E030E0AE014F5F5F4FC7011D
S11303300E946A0121E030E0AE014A5F5F4F62E053
S1130340C7010E946E0101E010E0C80102C0880FDD
S1130350991FDA94E2F79E81892B8E8321E030E0A5
S1130360AE014A5F5F4F62E0C7010E946A01D70194
S11303701396ED91FC911497808115960C9002C010
S1130380000F111F0A94E2F7082B008326960FB67C
S1130390F894DEBF0FBECDBFDF91CF911F910F91B7
S11303A0FF90EF90DF900895FC0127852E7030E0D8
S11303B035952795263031051CF4822F932F089507
S11303C08FEF9FEF0895CF93DF93EC01EB81FC81D6
S11303D0208181E090E00D8002C0880F991F0A946B
S11303E0E2F7809582238083CE010E947901CE01B9
S11303F00E94D401892F8095881F8827881FDF9148
S1130400CF910895CF93DF931F92CDB7DEB720E746
S1130410298321E030E0AE014F5F5F4F67E00E9427
S11304206A010F90DF91CF910895FF920F931F936C
S1130430CF93DF931F92CDB7DEB78C01DC01ED9132
S1130440FC911197429181E090E09C0112960C90EE
S1130450129702C0220F331F0A94E2F7242B208341
S11304601396ED91FC91149742919C0115960C9072
S1130470159702C0220F331F0A94E2F7242B20831E
S1130480ED91FC91119740819C0112960C9012976A
S113049002C0220F331F0A94E2F7242B2083139601
S11304A0ED91FC9114973081AC0115960C90159741
S11304B002C0440F551F0A94E2F7242F20952323EA
S11304C020832CB520612CBD2CB520642CBD169640
S11304D0ED91FC91179742919C0118960C901897F6
S11304E002C0220F331F0A94E2F7242B20831996AB
S11304F0ED91FC911A9742919C011B960C901B97CD
S113050002C0220F331F0A94E2F7242B20831C9687
S1130510ED91FC911D9722911E960C9002C0880FBC
S1130520991F0A94E2F78095822380838CB5877F94
S11305308CBD8CB58B7F8CBD8CB58E7F8CBD8CB502
S11305408D7F8CBD8DB581608DBD8CB58F7D8CBD4F
S113055020E030E040E050E062EEC8010E942F014C
S113056020E030E040E050E061EEC8010E942F013D
S1130570C8010E9402028FE0898321E030E0AE01CD
S11305804F5F5F4F60E0C8010E946A010F2EFFE3D6
S1130590FF2EF02DF98221E030E0AE014F5F5F4F76
S11305A061E0C8010E946A01F98221E030E0AE01F5
S11305B04F5F5F4F6CE1C8010E946A0184E0898348
S11305C021E030E0AE014F5F5F4F6DE1C8010E9452
S11305D06A01198221E030E0AE014F5F5F4F62E0B3
S11305E0C8010E946A010F90DF91CF911F910F9172
S11305F0FF900895CF93DF931F92CDB7DEB7FC0130
S113060097859064998321E030E0AE014F5F5F4F9E
S113061067E0CF010E946A010F90DF91CF910895A6
S11306200F931F93CF93DF938C01EB010E94D401AE
S113063099838883C8010E94FA0288819981992349
S11306401CF41AA280E017C021E030E0AE014E5D38
S11306505F4F60E6C8010E946E012AA1222351F077
S113066030E0AE014E5F5F4F61E6C8010E942F018A
S113067081E001C081E0DF91CF911F910F91089536
S11306800F931F93CF93DF938230910510F482E090
S113069090E0E0910F01F091100120E030E0A0E043
S11306A0B0E0309719F140815181028113814817DC
S11306B05907C8F08417950769F4109731F012961A
S11306C00C93129713961C9327C000930F01109359
S11306D0100122C02115310519F04217530718F4EF
S11306E09A01BD01EF01DF01F801DBCF21153105CE
S11306F0F9F0281B390B2430310580F48A819B8161
S11307006115710521F0FB019383828304C09093EA
S1130710100180930F01FE01329644C0FE01E20FE6
S1130720F31F8193919322503109398328833AC06E
S113073020910D0130910E01232B41F420910201EF
S11307403091030130930E0120930D01209100019B
S1130750309101012115310541F42DB73EB7409187
S1130760040150910501241B350BE0910D01F0911A
S11307700E01E217F307A0F42E1B3F0B28173907CD
S113078078F0AC014E5F5F4F2417350748F04E0FE9
S11307905F1F50930E0140930D018193919302C00A
S11307A0E0E0F0E0CF01DF91CF911F910F91089528
S11307B0CF93DF93009709F481C0FC013297138231
S11307C01282A0910F01B0911001109781F4208141
S11307D03181820F931F20910D0130910E01281752
S11307E0390751F5F0930E01E0930D0167C0ED0157
S11307F020E030E0CE17DF0740F44A815B819E01A0
S113080041155105F1F0EA01F5CFD383C28340814C
S11308105181840F951FC817D90759F4888199818C
S1130820840F951F0296918380838A819B81938391
S113083082832115310529F4F0931001E0930F010F
S11308403DC0E901FB83EA8349915991C40FD51F47
S1130850EC17FD0761F480819181840F951F029646
S1130860E90199838883828193819B838A83E0E071
S1130870F0E012968D919C911397009719F0FD0169
S1130880DC01F7CF8D919C9111979D012E5F3F4F15
S1130890820F931F20910D0130910E012817390703
S11308A069F4309729F41092100110920F0102C0DC
S11308B013821282B0930E01A0930D01DF91CF91A8
S10908C00895F894FFCF37
S10F08C6000011012000020406080A00D2
S9030000FC
