S00F000054585F54656D702E7372656374
S11300000C9434000C945B010C9451000C9451003A
S11300100C9451000C9451000C9451000C94510018
S11300200C9451000C9451000C9451000C94460112
S11300300C9451000C9451000C9451000C945100F8
S11300400C9451000C9451000C9451000C945100E8
S11300500C9451000C9451000C9451000C945100D8
S11300600C9451000C94510011241FBECFEFD8E022
S1130070DEBFCDBF11E0A0E0B1E0E8E0FAE002C0ED
S113008005900D92AC30B107D9F721E0ACE0B1E0B6
S113009001C01D92A331B207E1F70E9499000C94AC
S11300A002050C940000CF93DF930E947601EC01CB
S11300B085E290E09983888322E02A839C838B8362
S11300C021E02D839F838E8325E028879A87898763
S11300D023E02B879D878C8784E08E87E9E6F0E018
S11300E0808182608083E89ACE010E94E801CE017B
S11300F0DF91CF910895E1E8F0E08081886080830A
S1130100AFE6B0E08C9182608C9388E09DE390939D
S11301108900809388008081856080830895DC0154
S1130120E0ECF0E0908195FFFDCF8C918093C600C8
S11301300895CF93DF93CDB7DEB7AE970FB6F8949B
S1130140DEBF0FBECDBF8AE08E8380E287B985E033
S1130150E6E0F1E0DE01179601900D928A95E1F751
S113016078940E9453006C010E947B00ECE7F0E05D
S11301701082808180648083EAE7F0E08081876078
S1130180808380818062808310927B00808180687C
S113019080838081806480831092C50080E1809395
S11301A0C400E0ECF0E0808182608083E1ECF0E068
S11301B0808188608083E2ECF0E0808186608083C7
S11301C00AE710E00F2EF8E7EF2EF12CF02D912C1A
S11301D0A12CF801808184FFFCCFF70180819181FB
S11301E09695879580930E0180910D01882351F097
S11301F010920D01C6010E945003892B19F0C6010B
S11302000E94CD0180910C01882319F310920C01F6
S113021080910E014AE0BE016F5F7F4F90E00E9423
S1130220CD0489818823C1F0892D9A2DB12C21E038
S113023030E02C0F3D1F820F931F0E948F00B39458
S11302408B2D90E0E1E0F0E0EC0FFD1FE80FF91FCB
S113025020812111ECCF01C0B12CCE0106960E9461
S11302608F00B394BEA64B2D50E0BE016F5F7F4F4D
S1130270CE010E960E94C404AE01445F5F4FBE01DE
S1130280695F7F4FC6010E94E002A3CF1F920F92C5
S11302900FB60F9211248F939F9381E080930C01EA
S11302A098B180E2892788B99F918F910F900FBEF2
S11302B00F901F9018951F920F920FB60F92112452
S11302C08F9381E080930D018F910F900FBE0F905B
S11302D01F901895FC01A62FB72F9C012B5F3F4F51
S11302E091919D93E217F307D9F7089580E190E087
S11302F00E94A30320E1FC0111922A95E9F70895D5
S1130300CF93DF93EC01DA01E881F981508181E038
S113031090E00A8002C0880F991F0A94E2F7809542
S1130320852380836EBD0DB407FEFDCF8EB58F8708
S11303302115310579F0FD012A0F3B1FDF01908162
S11303409EBD0DB407FEFDCF9EB59C933196E2177A
S1130350F307A1F7E881F981208181E090E00A8028
S113036002C0880F991F0A94E2F7822B80838F853D
S1130370DF91CF91089560620E94800108950E94E8
S11303808001089520E030E040E050E06FEF0E94EB
S1130390800108950E94C201089520E030E040E009
S11303A050E061EE0E9480010895CF93DF931F9285
S11303B0CDB7DEB720E7298321E030E0AE014F5FFF
S11303C05F4F67E00E94BB010F90DF91CF910895CA
S11303D0FF920F931F93CF93DF931F92CDB7DEB796
S11303E08C01DC01ED91FC911197429181E090E048
S11303F09C0112960C90129702C0220F331F0A948C
S1130400E2F7242B20831396ED91FC9114974291EB
S11304109C0115960C90159702C0220F331F0A9465
S1130420E2F7242B2083ED91FC91119740819C01EC
S113043012960C90129702C0220F331F0A94E2F70F
S1130440242B20831396ED91FC9114973081AC01F9
S113045015960C90159702C0440F551F0A94E2F7A5
S1130460242F2095232320832CB520612CBD2CB56B
S113047020642CBD1696ED91FC91179742919C0136
S113048018960C90189702C0220F331F0A94E2F7B3
S1130490242B20831996ED91FC911A9742919C018B
S11304A01B960C901B9702C0220F331F0A94E2F78D
S11304B0242B20831C96ED91FC911D9722911E966E
S11304C00C9002C0880F991F0A94E2F7809582234A
S11304D080838CB5877F8CBD8CB58B7F8CBD8CB5B0
S11304E08E7F8CBD8CB58D7F8CBD8DB581608DBDAF
S11304F08CB58F7D8CBD20E030E040E050E062EEB2
S1130500C8010E94800120E030E040E050E061EE4C
S1130510C8010E948001C8010E94D5018FE089832F
S113052021E030E0AE014F5F5F4F60E0C8010E9400
S1130530BB010F2EFFE3FF2EF02DF98221E030E006
S1130540AE014F5F5F4F61E0C8010E94BB01F982B9
S113055021E030E0AE014F5F5F4F6CE1C8010E94C3
S1130560BB0184E0898321E030E0AE014F5F5F4F3F
S11305706DE1C8010E94BB01198221E030E0AE01A7
S11305804F5F5F4F62E0C8010E94BB010F90DF9193
S1130590CF911F910F91FF900895CF93DF931F92F6
S11305A0CDB7DEB720E3298321E030E0AE014F5F11
S11305B05F4F67E00E94BB010F90DF91CF910895D8
S11305C0CF92DF92EF92FF920F931F93CF93DF931B
S11305D000D000D000D0CDB7DEB78C016B017A011A
S11305E00E94CD02BE016F5F7F4FC6010E946A0167
S11305F025E030E0AE014F5F5F4F60E1C8010E942B
S1130600BB01BE016F5F7F4FC6010E946A0125E0F6
S113061030E0AE014F5F5F4F6AE0C8010E94BB014A
S1130620D70192962C9130E0A7014E5F5F4F60EAAC
S1130630C8010E94800121E030E0AE014A5F5F4FB3
S113064060E0C8010E94BF018E818E7F8E8321E00D
S113065030E0AE014A5F5F4F60E0C8010E94BB0119
S1130660D8011396ED91FC911497208181E090E0DC
S113067015960C9002C0880F991F0A94E2F7822BFA
S1130680808326960FB6F894DEBF0FBECDBFDF91F0
S1130690CF911F910F91FF90EF90DF90CF9008952D
S11306A0EF92FF920F931F93CF93DF931F92CDB7D7
S11306B0DEB78C01DC011396ED91FC911497208137
S11306C081E090E015960C9002C0880F991F0A945F
S11306D0E2F7809582238083C8010E94CA01F80151
S11306E0878585FD09C084FD0AC00F2EFEEFEF2E1D
S11306F0FF24FA94F02D06C0E12CF12C03C0EE2463
S1130700EA94FE2CC8010E94CD0221E030E0AE0143
S11307104F5F5F4F60E0C8010E94BF018981816023
S1130720898321E030E0AE014F5F5F4F60E0C80194
S11307300E94BB01C7010F90DF91CF911F910F91D0
S1130740FF90EF9008950F931F93CF93DF93823020
S1130750910510F482E090E0E0911101F091120112
S113076020E030E0A0E0B0E0309719F14081518101
S11307700281138148175907C8F08417950769F453
S1130780109731F012960C93129713961C9327C06E
S1130790009311011093120122C02115310519F0A3
S11307A04217530718F49A01BD01EF01DF01F80164
S11307B0DBCF21153105F9F0281B390B2430310525
S11307C080F48A819B816115710521F0FB0193837B
S11307D0828304C09093120180931101FE0132962A
S11307E044C0FE01E20FF31F81939193225031091B
S11307F0398328833AC020910F0130911001232BB3
S113080041F42091020130910301309310012093AF
S11308100F0120910001309101012115310541F4AE
S11308202DB73EB74091040150910501241B350BAF
S1130830E0910F01F0911001E217F307A0F42E1BD1
S11308403F0B2817390778F0AC014E5F5F4F241730
S1130850350748F04E0F5F1F5093100140930F016E
S11308608193919302C0E0E0F0E0CF01DF91CF915A
S11308701F910F910895CF93DF93009709F481C0DE
S1130880FC01329713821282A0911101B0911201DE
S1130890109781F420813181820F931F20910F01E1
S11308A0309110012817390751F5F0931001E093A6
S11308B00F0167C0ED0120E030E0CE17DF0740F400
S11308C04A815B819E0141155105F1F0EA01F5CFA2
S11308D0D383C28340815181840F951FC817D907E0
S11308E059F488819981840F951F0296918380839E
S11308F08A819B81938382832115310529F4F093A6
S11309001201E09311013DC0E901FB83EA8349919F
S11309105991C40FD51FEC17FD0761F480819181B3
S1130920840F951F0296E9019983888382819381BC
S11309309B838A83E0E0F0E012968D919C9113975B
S1130940009719F0FD01DC01F7CF8D919C9111976F
S11309509D012E5F3F4F820F931F20910F01309115
S113096010012817390769F4309729F410921201FD
S11309701092110102C013821282B0931001A0934D
S11309800F01DF91CF910895FB01DC0102C00190BA
S11309900D9241505040D8F70895BB274A3031F4A6
S11309A0992322F4BDE2909581959F4F0C94D9042C
S11309B0BB27FB015527AA27880F991FAA1FA41735
S11309C010F0A41B83955051B9F7A05DAA3308F029
S11309D0A95DA193009779F7B111B1931192CB015D
S11309E00C94F204DC01FC01672F71917723E1F789
S11309F0329704C07C916D9370836291AE17BF07E8
S10B0A00C8F30895F894FFCF38
S10F0A08000013012000020406080A008C
S9030000FC
